{
  "_format": "hh-sol-artifact-1",
  "contractName": "DappVotes",
  "sourceName": "contracts/DappVotes.sol",
  "abi": [
    {
      "inputs": [],
      "stateMutability": "nonpayable",
      "type": "constructor"
    },
    {
      "anonymous": false,
      "inputs": [
        {
          "indexed": true,
          "internalType": "address",
          "name": "admin",
          "type": "address"
        }
      ],
      "name": "AdminAdded",
      "type": "event"
    },
    {
      "anonymous": false,
      "inputs": [
        {
          "indexed": true,
          "internalType": "address",
          "name": "admin",
          "type": "address"
        }
      ],
      "name": "AdminRemoved",
      "type": "event"
    },
    {
      "anonymous": false,
      "inputs": [
        {
          "indexed": true,
          "internalType": "address",
          "name": "voter",
          "type": "address"
        },
        {
          "indexed": false,
          "internalType": "uint256",
          "name": "timestamp",
          "type": "uint256"
        }
      ],
      "name": "Voted",
      "type": "event"
    },
    {
      "inputs": [
        {
          "internalType": "address",
          "name": "newAdmin",
          "type": "address"
        }
      ],
      "name": "addAdmin",
      "outputs": [],
      "stateMutability": "nonpayable",
      "type": "function"
    },
    {
      "inputs": [
        {
          "internalType": "address",
          "name": "",
          "type": "address"
        }
      ],
      "name": "admins",
      "outputs": [
        {
          "internalType": "bool",
          "name": "",
          "type": "bool"
        }
      ],
      "stateMutability": "view",
      "type": "function"
    },
    {
      "inputs": [
        {
          "internalType": "uint256",
          "name": "id",
          "type": "uint256"
        },
        {
          "internalType": "string",
          "name": "name",
          "type": "string"
        },
        {
          "internalType": "string",
          "name": "image",
          "type": "string"
        }
      ],
      "name": "contest",
      "outputs": [],
      "stateMutability": "nonpayable",
      "type": "function"
    },
    {
      "inputs": [
        {
          "internalType": "string",
          "name": "image",
          "type": "string"
        },
        {
          "internalType": "string",
          "name": "title",
          "type": "string"
        },
        {
          "internalType": "string",
          "name": "description",
          "type": "string"
        },
        {
          "internalType": "uint256",
          "name": "startsAt",
          "type": "uint256"
        },
        {
          "internalType": "uint256",
          "name": "endsAt",
          "type": "uint256"
        }
      ],
      "name": "createPoll",
      "outputs": [],
      "stateMutability": "nonpayable",
      "type": "function"
    },
    {
      "inputs": [
        {
          "internalType": "uint256",
          "name": "pollId",
          "type": "uint256"
        },
        {
          "internalType": "uint256",
          "name": "contestantId",
          "type": "uint256"
        }
      ],
      "name": "deleteContestant",
      "outputs": [],
      "stateMutability": "nonpayable",
      "type": "function"
    },
    {
      "inputs": [
        {
          "internalType": "uint256",
          "name": "id",
          "type": "uint256"
        }
      ],
      "name": "deletePoll",
      "outputs": [],
      "stateMutability": "nonpayable",
      "type": "function"
    },
    {
      "inputs": [
        {
          "internalType": "uint256",
          "name": "id",
          "type": "uint256"
        },
        {
          "internalType": "uint256",
          "name": "cid",
          "type": "uint256"
        }
      ],
      "name": "getContestant",
      "outputs": [
        {
          "components": [
            {
              "internalType": "uint256",
              "name": "id",
              "type": "uint256"
            },
            {
              "internalType": "string",
              "name": "image",
              "type": "string"
            },
            {
              "internalType": "string",
              "name": "name",
              "type": "string"
            },
            {
              "internalType": "address",
              "name": "voter",
              "type": "address"
            },
            {
              "internalType": "uint256",
              "name": "votes",
              "type": "uint256"
            },
            {
              "internalType": "address[]",
              "name": "voters",
              "type": "address[]"
            },
            {
              "internalType": "bool",
              "name": "deleted",
              "type": "bool"
            }
          ],
          "internalType": "struct DappVotes.ContestantStruct",
          "name": "",
          "type": "tuple"
        }
      ],
      "stateMutability": "view",
      "type": "function"
    },
    {
      "inputs": [
        {
          "internalType": "uint256",
          "name": "id",
          "type": "uint256"
        }
      ],
      "name": "getContestants",
      "outputs": [
        {
          "components": [
            {
              "internalType": "uint256",
              "name": "id",
              "type": "uint256"
            },
            {
              "internalType": "string",
              "name": "image",
              "type": "string"
            },
            {
              "internalType": "string",
              "name": "name",
              "type": "string"
            },
            {
              "internalType": "address",
              "name": "voter",
              "type": "address"
            },
            {
              "internalType": "uint256",
              "name": "votes",
              "type": "uint256"
            },
            {
              "internalType": "address[]",
              "name": "voters",
              "type": "address[]"
            },
            {
              "internalType": "bool",
              "name": "deleted",
              "type": "bool"
            }
          ],
          "internalType": "struct DappVotes.ContestantStruct[]",
          "name": "Contestants",
          "type": "tuple[]"
        }
      ],
      "stateMutability": "view",
      "type": "function"
    },
    {
      "inputs": [
        {
          "internalType": "uint256",
          "name": "id",
          "type": "uint256"
        }
      ],
      "name": "getPoll",
      "outputs": [
        {
          "components": [
            {
              "internalType": "uint256",
              "name": "id",
              "type": "uint256"
            },
            {
              "internalType": "string",
              "name": "image",
              "type": "string"
            },
            {
              "internalType": "string",
              "name": "title",
              "type": "string"
            },
            {
              "internalType": "string",
              "name": "description",
              "type": "string"
            },
            {
              "internalType": "uint256",
              "name": "votes",
              "type": "uint256"
            },
            {
              "internalType": "uint256",
              "name": "contestants",
              "type": "uint256"
            },
            {
              "internalType": "bool",
              "name": "deleted",
              "type": "bool"
            },
            {
              "internalType": "address",
              "name": "director",
              "type": "address"
            },
            {
              "internalType": "uint256",
              "name": "startsAt",
              "type": "uint256"
            },
            {
              "internalType": "uint256",
              "name": "endsAt",
              "type": "uint256"
            },
            {
              "internalType": "uint256",
              "name": "timestamp",
              "type": "uint256"
            },
            {
              "internalType": "address[]",
              "name": "voters",
              "type": "address[]"
            },
            {
              "internalType": "string[]",
              "name": "avatars",
              "type": "string[]"
            }
          ],
          "internalType": "struct DappVotes.PollStruct",
          "name": "",
          "type": "tuple"
        }
      ],
      "stateMutability": "view",
      "type": "function"
    },
    {
      "inputs": [],
      "name": "getPolls",
      "outputs": [
        {
          "components": [
            {
              "internalType": "uint256",
              "name": "id",
              "type": "uint256"
            },
            {
              "internalType": "string",
              "name": "image",
              "type": "string"
            },
            {
              "internalType": "string",
              "name": "title",
              "type": "string"
            },
            {
              "internalType": "string",
              "name": "description",
              "type": "string"
            },
            {
              "internalType": "uint256",
              "name": "votes",
              "type": "uint256"
            },
            {
              "internalType": "uint256",
              "name": "contestants",
              "type": "uint256"
            },
            {
              "internalType": "bool",
              "name": "deleted",
              "type": "bool"
            },
            {
              "internalType": "address",
              "name": "director",
              "type": "address"
            },
            {
              "internalType": "uint256",
              "name": "startsAt",
              "type": "uint256"
            },
            {
              "internalType": "uint256",
              "name": "endsAt",
              "type": "uint256"
            },
            {
              "internalType": "uint256",
              "name": "timestamp",
              "type": "uint256"
            },
            {
              "internalType": "address[]",
              "name": "voters",
              "type": "address[]"
            },
            {
              "internalType": "string[]",
              "name": "avatars",
              "type": "string[]"
            }
          ],
          "internalType": "struct DappVotes.PollStruct[]",
          "name": "Polls",
          "type": "tuple[]"
        }
      ],
      "stateMutability": "view",
      "type": "function"
    },
    {
      "inputs": [
        {
          "internalType": "address",
          "name": "account",
          "type": "address"
        }
      ],
      "name": "isAdmin",
      "outputs": [
        {
          "internalType": "bool",
          "name": "",
          "type": "bool"
        }
      ],
      "stateMutability": "view",
      "type": "function"
    },
    {
      "inputs": [],
      "name": "owner",
      "outputs": [
        {
          "internalType": "address",
          "name": "",
          "type": "address"
        }
      ],
      "stateMutability": "view",
      "type": "function"
    },
    {
      "inputs": [
        {
          "internalType": "address",
          "name": "adminToRemove",
          "type": "address"
        }
      ],
      "name": "removeAdmin",
      "outputs": [],
      "stateMutability": "nonpayable",
      "type": "function"
    },
    {
      "inputs": [
        {
          "internalType": "uint256",
          "name": "pollId",
          "type": "uint256"
        },
        {
          "internalType": "uint256",
          "name": "contestantId",
          "type": "uint256"
        },
        {
          "internalType": "string",
          "name": "name",
          "type": "string"
        },
        {
          "internalType": "string",
          "name": "image",
          "type": "string"
        }
      ],
      "name": "updateContestant",
      "outputs": [],
      "stateMutability": "nonpayable",
      "type": "function"
    },
    {
      "inputs": [
        {
          "internalType": "uint256",
          "name": "id",
          "type": "uint256"
        },
        {
          "internalType": "string",
          "name": "image",
          "type": "string"
        },
        {
          "internalType": "string",
          "name": "title",
          "type": "string"
        },
        {
          "internalType": "string",
          "name": "description",
          "type": "string"
        },
        {
          "internalType": "uint256",
          "name": "startsAt",
          "type": "uint256"
        },
        {
          "internalType": "uint256",
          "name": "endsAt",
          "type": "uint256"
        }
      ],
      "name": "updatePoll",
      "outputs": [],
      "stateMutability": "nonpayable",
      "type": "function"
    },
    {
      "inputs": [
        {
          "internalType": "uint256",
          "name": "id",
          "type": "uint256"
        },
        {
          "internalType": "uint256",
          "name": "cid",
          "type": "uint256"
        }
      ],
      "name": "vote",
      "outputs": [],
      "stateMutability": "nonpayable",
      "type": "function"
    }
  ],
  "bytecode": "0x608060405234801561001057600080fd5b50600380546001600160a01b031916339081179091556000908152600260205260409020805460ff191660011790556134208061004e6000396000f3fe608060405234801561001057600080fd5b50600436106101005760003560e01c806366dd51dc11610097578063cee9dc4511610066578063cee9dc451461023b578063d34364111461025b578063daef4eeb1461027b578063f0d0bc451461028e57600080fd5b806366dd51dc146101d757806370480275146101ea5780638da5cb5b146101fd578063b384abef1461022857600080fd5b80631f35b51d116100d35780631f35b51d1461016b57806324d7806c1461017e57806327683156146101a1578063429b62e5146101b457600080fd5b8063029433f014610105578063120fe89b1461011a5780631785f53c146101385780631a8cbcaa1461014b575b600080fd5b610118610113366004612926565b6102a1565b005b61012261052e565b60405161012f9190612baf565b60405180910390f35b610118610146366004612c11565b6109a9565b61015e610159366004612c41565b610b22565b60405161012f9190612c5a565b610118610179366004612c41565b610ea4565b61019161018c366004612c11565b610fbc565b604051901515815260200161012f565b6101186101af366004612c6d565b610ff6565b6101916101c2366004612c11565b60026020526000908152604090205460ff1681565b6101186101e5366004612c8f565b6113ed565b6101186101f8366004612c11565b6116af565b600354610210906001600160a01b031681565b6040516001600160a01b03909116815260200161012f565b610118610236366004612c6d565b611820565b61024e610249366004612c41565b611af6565b60405161012f9190612d83565b61026e610269366004612c6d565b611e5c565b60405161012f9190612dd8565b610118610289366004612deb565b612066565b61011861029c366004612e62565b61237a565b60008681526004602052604090205460ff166102d85760405162461bcd60e51b81526004016102cf90612efc565b60405180910390fd5b60008681526005602052604090206006015461010090046001600160a01b031633146103165760405162461bcd60e51b81526004016102cf90612f24565b600084511161035f5760405162461bcd60e51b81526020600482015260156024820152745469746c652063616e6e6f7420626520656d70747960581b60448201526064016102cf565b60008351116103b05760405162461bcd60e51b815260206004820152601b60248201527f4465736372697074696f6e2063616e6e6f7420626520656d707479000000000060448201526064016102cf565b60008551116103d15760405162461bcd60e51b81526004016102cf90612f50565b60008681526005602052604090206006015460ff16156104335760405162461bcd60e51b815260206004820152601760248201527f506f6c6c696e6720616c72656164792064656c6574656400000000000000000060448201526064016102cf565b6000868152600560205260409020600401546001116104645760405162461bcd60e51b81526004016102cf90612f87565b8181116104c45760405162461bcd60e51b815260206004820152602860248201527f456e642064617465206d7573742062652067726561746572207468616e207374604482015267617274206461746560c01b60648201526084016102cf565b60008681526005602052604090206002016104df8582613040565b5060008681526005602052604090206003016104fb8482613040565b50600086815260056020526040902060078101839055600881018290556001016105258682613040565b50505050505050565b6060600060015b60005481116105775760008181526005602052604090206006015460ff16610565578161056181613116565b9250505b8061056f81613116565b915050610535565b508067ffffffffffffffff81111561059157610591612883565b6040519080825280602002602001820160405280156105ca57816020015b6105b7612684565b8152602001906001900390816105af5790505b509150600060015b60005481116109a35760008181526005602052604090206006015460ff166109915760056000828152602001908152602001600020604051806101a00160405290816000820154815260200160018201805461062d90612fb7565b80601f016020809104026020016040519081016040528092919081815260200182805461065990612fb7565b80156106a65780601f1061067b576101008083540402835291602001916106a6565b820191906000526020600020905b81548152906001019060200180831161068957829003601f168201915b505050505081526020016002820180546106bf90612fb7565b80601f01602080910402602001604051908101604052809291908181526020018280546106eb90612fb7565b80156107385780601f1061070d57610100808354040283529160200191610738565b820191906000526020600020905b81548152906001019060200180831161071b57829003601f168201915b5050505050815260200160038201805461075190612fb7565b80601f016020809104026020016040519081016040528092919081815260200182805461077d90612fb7565b80156107ca5780601f1061079f576101008083540402835291602001916107ca565b820191906000526020600020905b8154815290600101906020018083116107ad57829003601f168201915b505050918352505060048201546020808301919091526005830154604080840191909152600684015460ff8116151560608501526001600160a01b0361010091829004166080850152600785015460a0850152600885015460c0850152600985015460e0850152600a850180548351818602810186019094528084529190940193919283018282801561088657602002820191906000526020600020905b81546001600160a01b03168152600190910190602001808311610868575b50505050508152602001600b8201805480602002602001604051908101604052809291908181526020016000905b828210156109605783829060005260206000200180546108d390612fb7565b80601f01602080910402602001604051908101604052809291908181526020018280546108ff90612fb7565b801561094c5780601f106109215761010080835404028352916020019161094c565b820191906000526020600020905b81548152906001019060200180831161092f57829003601f168201915b5050505050815260200190600101906108b4565b5050509152508590508361097381613116565b9450815181106109855761098561312f565b60200260200101819052505b8061099b81613116565b9150506105d2565b50505090565b3360009081526002602052604090205460ff16806109d157506003546001600160a01b031633145b610a1d5760405162461bcd60e51b815260206004820152601c60248201527f4f6e6c792061646d696e2063616e2072656d6f76652061646d696e730000000060448201526064016102cf565b6003546001600160a01b0390811690821603610a715760405162461bcd60e51b815260206004820152601360248201527221b0b73737ba103932b6b7bb329037bbb732b960691b60448201526064016102cf565b6001600160a01b03811660009081526002602052604090205460ff16610ad95760405162461bcd60e51b815260206004820152601760248201527f41646472657373206973206e6f7420616e2061646d696e00000000000000000060448201526064016102cf565b6001600160a01b038116600081815260026020526040808220805460ff19169055517fa3b62bc36326052d97ea62d63c3d60308ed4c3ea8ac079dd8499f1e9c4f80c0f9190a250565b610b2a612684565b60056000838152602001908152602001600020604051806101a001604052908160008201548152602001600182018054610b6390612fb7565b80601f0160208091040260200160405190810160405280929190818152602001828054610b8f90612fb7565b8015610bdc5780601f10610bb157610100808354040283529160200191610bdc565b820191906000526020600020905b815481529060010190602001808311610bbf57829003601f168201915b50505050508152602001600282018054610bf590612fb7565b80601f0160208091040260200160405190810160405280929190818152602001828054610c2190612fb7565b8015610c6e5780601f10610c4357610100808354040283529160200191610c6e565b820191906000526020600020905b815481529060010190602001808311610c5157829003601f168201915b50505050508152602001600382018054610c8790612fb7565b80601f0160208091040260200160405190810160405280929190818152602001828054610cb390612fb7565b8015610d005780601f10610cd557610100808354040283529160200191610d00565b820191906000526020600020905b815481529060010190602001808311610ce357829003601f168201915b505050918352505060048201546020808301919091526005830154604080840191909152600684015460ff8116151560608501526001600160a01b0361010091829004166080850152600785015460a0850152600885015460c0850152600985015460e0850152600a8501805483518186028101860190945280845291909401939192830182828015610dbc57602002820191906000526020600020905b81546001600160a01b03168152600190910190602001808311610d9e575b50505050508152602001600b8201805480602002602001604051908101604052809291908181526020016000905b82821015610e96578382906000526020600020018054610e0990612fb7565b80601f0160208091040260200160405190810160405280929190818152602001828054610e3590612fb7565b8015610e825780601f10610e5757610100808354040283529160200191610e82565b820191906000526020600020905b815481529060010190602001808311610e6557829003601f168201915b505050505081526020019060010190610dea565b505050915250909392505050565b60008181526004602052604090205460ff16610ed25760405162461bcd60e51b81526004016102cf90612efc565b60008181526005602052604090206006015461010090046001600160a01b03163314610f105760405162461bcd60e51b81526004016102cf90612f24565b60008181526005602052604090206004015460011180610f475750600081815260056020526040902060080154610f45612665565b115b610f9e5760405162461bcd60e51b815260206004820152602260248201527f506f6c6c206973207374696c6c2061637469766520616e642068617320766f74604482015261657360f01b60648201526084016102cf565b6000908152600560205260409020600601805460ff19166001179055565b6001600160a01b03811660009081526002602052604081205460ff1680610ff057506003546001600160a01b038381169116145b92915050565b60008281526004602052604090205460ff166110245760405162461bcd60e51b81526004016102cf90612efc565b6000828152600560205260409020600401546001116110555760405162461bcd60e51b81526004016102cf90612f87565b600082815260086020908152604080832084845290915290208054821480156110835750600681015460ff16155b6110c65760405162461bcd60e51b815260206004820152601460248201527310dbdb9d195cdd185b9d081b9bdd08199bdd5b9960621b60448201526064016102cf565b60038101546001600160a01b03163314806110ff575060008381526005602052604090206006015461010090046001600160a01b031633145b61111b5760405162461bcd60e51b81526004016102cf90612f24565b6003810154604051600091611148916001600160a01b0390911690600285019060018601906020016131b8565b60408051601f19818403018152918152815160209283012060008781526007845282812060038701546001600160a01b031682528452828120828252909352908220805460ff19169055600184018054919350906111a590612fb7565b80601f01602080910402602001604051908101604052809291908181526020018280546111d190612fb7565b801561121e5780601f106111f35761010080835404028352916020019161121e565b820191906000526020600020905b81548152906001019060200180831161120157829003601f168201915b50505060068601805460ff19166001179055505060408051602081019091526000815290915060028401906112539082613040565b5060408051602081019091526000815260018401906112729082613040565b506112816005840160006126f7565b6000600484018190558581526005602081905260409091200154156112c35760008581526005602081905260408220018054916112bd836131ee565b91905055505b6000858152600560205260408120600b01805490915b818110156113e357836040516020016112f29190613205565b6040516020818303038152906040528051906020012083828154811061131a5761131a61312f565b906000526020600020016040516020016113349190613221565b60405160208183030381529060405280519060200120036113d1578261135b60018461322d565b8154811061136b5761136b61312f565b906000526020600020018382815481106113875761138761312f565b90600052602060002001908161139d9190613240565b50828054806113ae576113ae61331b565b6001900381819060005260206000200160006113ca9190612718565b90556113e3565b806113db81613116565b9150506112d9565b5050505050505050565b60008381526004602052604090205460ff1661141b5760405162461bcd60e51b81526004016102cf90612efc565b60008251116114635760405162461bcd60e51b81526020600482015260146024820152734e616d652063616e6e6f7420626520656d70747960601b60448201526064016102cf565b60008151116114845760405162461bcd60e51b81526004016102cf90612f50565b6000838152600560205260409020600401546001116114b55760405162461bcd60e51b81526004016102cf90612f87565b60003383836040516020016114cc93929190613331565b60408051601f198184030181529181528151602092830120600087815260078452828120338252845282812082825290935291205490915060ff16156115545760405162461bcd60e51b815260206004820152601c60248201527f436f6e74657374616e7420616c7265616479207375626d69747465640000000060448201526064016102cf565b611562600180546001019055565b61156a612752565b60408181018590526020808301858152336060850152600180548552600060c0860181905289815260088452848120865182529093529290912083518155905183928201906115b99082613040565b50604082015160028201906115ce9082613040565b5060608201516003820180546001600160a01b0319166001600160a01b039092169190911790556080820151600482015560a0820151805161161a91600584019160209091019061279a565b5060c091909101516006909101805491151560ff1992831617905560008681526007602090815260408083203384528252808320868452825280832080549094166001908117909455888352600582528220600b018054938401815582529020016116858482613040565b5060008581526005602081905260408220018054916116a383613116565b91905055505050505050565b3360009081526002602052604090205460ff16806116d757506003546001600160a01b031633145b6117235760405162461bcd60e51b815260206004820152601960248201527f4f6e6c792061646d696e2063616e206164642061646d696e730000000000000060448201526064016102cf565b6001600160a01b03811661176b5760405162461bcd60e51b815260206004820152600f60248201526e496e76616c6964206164647265737360881b60448201526064016102cf565b6001600160a01b03811660009081526002602052604090205460ff16156117d45760405162461bcd60e51b815260206004820152601b60248201527f4164647265737320697320616c726561647920616e2061646d696e000000000060448201526064016102cf565b6001600160a01b038116600081815260026020526040808220805460ff19166001179055517f44d6d25963f097ad14f29f06854a01f575648a1ef82f30e562ccd3889717e3399190a250565b60008281526004602052604090205460ff1661184e5760405162461bcd60e51b81526004016102cf90612efc565b600082815260066020908152604080832033845290915290205460ff16156118a85760405162461bcd60e51b815260206004820152600d60248201526c105b1c9958591e481d9bdd1959609a1b60448201526064016102cf565b60008281526005602052604090206006015460ff16156119025760405162461bcd60e51b8152602060048201526015602482015274506f6c6c696e67206e6f7420617661696c61626c6560581b60448201526064016102cf565b6000828152600560208190526040909120015460011061195c5760405162461bcd60e51b8152602060048201526015602482015274139bdd08195b9bdd59da0818dbdb9d195cdd185b9d605a1b60448201526064016102cf565b600082815260056020526040902060070154611976612665565b1015801561199b5750600082815260056020526040902060080154611999612665565b105b6119e05760405162461bcd60e51b81526020600482015260166024820152752b37ba34b7339036bab9ba1031329039b2b9b9b4b7b760511b60448201526064016102cf565b60008281526005602052604081206004018054916119fd83613116565b90915550506000828152600560209081526040808320600a0180546001810182559084528284200180546001600160a01b03191633179055848352600882528083208484529091528120600401805491611a5683613116565b9091555050600082815260086020908152604080832084845282528083206005018054600181810183559185528385200180546001600160a01b03191633908117909155868552600684528285208186529093529220805460ff19169092179091557f4d99b957a2bc29a30ebd96a7be8e68fe50a3c701db28a91436490b7d53870ca4611ae1612665565b60405190815260200160405180910390a25050565b6060600060015b6001548111611b7057600084815260086020908152604080832084845290915290205481148015611b4b5750600084815260086020908152604080832084845290915290206006015460ff16155b15611b5e5781611b5a81613116565b9250505b80611b6881613116565b915050611afd565b508067ffffffffffffffff811115611b8a57611b8a612883565b604051908082528060200260200182016040528015611bc357816020015b611bb0612752565b815260200190600190039081611ba85790505b509150600060015b6001548111611e5457600085815260086020908152604080832084845290915290205481148015611c195750600085815260086020908152604080832084845290915290206006015460ff16155b15611e42576000858152600860209081526040808320848452825291829020825160e08101909352805483526001810180549192840191611c5990612fb7565b80601f0160208091040260200160405190810160405280929190818152602001828054611c8590612fb7565b8015611cd25780601f10611ca757610100808354040283529160200191611cd2565b820191906000526020600020905b815481529060010190602001808311611cb557829003601f168201915b50505050508152602001600282018054611ceb90612fb7565b80601f0160208091040260200160405190810160405280929190818152602001828054611d1790612fb7565b8015611d645780601f10611d3957610100808354040283529160200191611d64565b820191906000526020600020905b815481529060010190602001808311611d4757829003601f168201915b505050505081526020016003820160009054906101000a90046001600160a01b03166001600160a01b03166001600160a01b031681526020016004820154815260200160058201805480602002602001604051908101604052809291908181526020018280548015611dff57602002820191906000526020600020905b81546001600160a01b03168152600190910190602001808311611de1575b50505091835250506006919091015460ff1615156020909101528483611e2481613116565b945081518110611e3657611e3661312f565b60200260200101819052505b80611e4c81613116565b915050611bcb565b505050919050565b611e64612752565b6000838152600860209081526040808320858452825291829020825160e08101909352805483526001810180549192840191611e9f90612fb7565b80601f0160208091040260200160405190810160405280929190818152602001828054611ecb90612fb7565b8015611f185780601f10611eed57610100808354040283529160200191611f18565b820191906000526020600020905b815481529060010190602001808311611efb57829003601f168201915b50505050508152602001600282018054611f3190612fb7565b80601f0160208091040260200160405190810160405280929190818152602001828054611f5d90612fb7565b8015611faa5780601f10611f7f57610100808354040283529160200191611faa565b820191906000526020600020905b815481529060010190602001808311611f8d57829003601f168201915b505050505081526020016003820160009054906101000a90046001600160a01b03166001600160a01b03166001600160a01b03168152602001600482015481526020016005820180548060200260200160405190810160405280929190818152602001828054801561204557602002820191906000526020600020905b81546001600160a01b03168152600190910190602001808311612027575b50505091835250506006919091015460ff1615156020909101529392505050565b60008481526004602052604090205460ff166120945760405162461bcd60e51b81526004016102cf90612efc565b60008251116120dc5760405162461bcd60e51b81526020600482015260146024820152734e616d652063616e6e6f7420626520656d70747960601b60448201526064016102cf565b60008151116120fd5760405162461bcd60e51b81526004016102cf90612f50565b60008481526005602052604090206004015460011161212e5760405162461bcd60e51b81526004016102cf90612f87565b6000848152600860209081526040808320868452909152902080548414801561215c5750600681015460ff16155b61219f5760405162461bcd60e51b815260206004820152601460248201527310dbdb9d195cdd185b9d081b9bdd08199bdd5b9960621b60448201526064016102cf565b60038101546001600160a01b03163314806121d8575060008581526005602052604090206006015461010090046001600160a01b031633145b6121f45760405162461bcd60e51b81526004016102cf90612f24565b6003810154604051600091612221916001600160a01b0390911690600285019060018601906020016131b8565b60408051601f19818403018152828252805160209182012060008a8152600783528381206003880180546001600160a01b0390811684529185528583208484528552948220805460ff191690559354919550936122879391909116918891889101613331565b60408051601f19818403018152918152815160209283012060008a81526007845282812060038801546001600160a01b03168252845282812082825290935291205490915060ff161561231c5760405162461bcd60e51b815260206004820152601c60248201527f436f6e74657374616e7420616c7265616479207375626d69747465640000000060448201526064016102cf565b6002830161232a8682613040565b50600183016123398582613040565b5060009687526007602090815260408089206003909501546001600160a01b031689529381528388209188525250909320805460ff19166001179055505050565b3360009081526002602052604090205460ff16806123a257506003546001600160a01b031633145b6123ee5760405162461bcd60e51b815260206004820152601b60248201527f4f6e6c792061646d696e2063616e2063726561746520706f6c6c73000000000060448201526064016102cf565b60008451116124375760405162461bcd60e51b81526020600482015260156024820152745469746c652063616e6e6f7420626520656d70747960581b60448201526064016102cf565b60008351116124885760405162461bcd60e51b815260206004820152601b60248201527f4465736372697074696f6e2063616e6e6f7420626520656d707479000000000060448201526064016102cf565b60008551116124a95760405162461bcd60e51b81526004016102cf90612f50565b600082116124c95760405162461bcd60e51b81526004016102cf9061337f565b8181116124e85760405162461bcd60e51b81526004016102cf9061337f565b6124f6600080546001019055565b6124fe612684565b6000548152604081018590526060810184905260208101869052610100810183905261012081018290523360e0820152612536612665565b61014082015280516000908152600560209081526040909120825181559082015182919060018201906125699082613040565b506040820151600282019061257e9082613040565b50606082015160038201906125939082613040565b506080820151600482015560a0820151600582015560c082015160068201805460e08501516001600160a81b0319909116921515610100600160a81b031916929092176101006001600160a01b039093168302179055820151600782015561012082015160088201556101408201516009820155610160820151805161262391600a84019160209091019061279a565b50610180820151805161264091600b8401916020909101906127ff565b505090516000908152600460205260409020805460ff19166001179055505050505050565b6000612673426103e86133c0565b61267f906103e86133d7565b905090565b604051806101a0016040528060008152602001606081526020016060815260200160608152602001600081526020016000815260200160001515815260200160006001600160a01b0316815260200160008152602001600081526020016000815260200160608152602001606081525090565b50805460008255906000526020600020908101906127159190612851565b50565b50805461272490612fb7565b6000825580601f10612734575050565b601f0160209004906000526020600020908101906127159190612851565b6040518060e0016040528060008152602001606081526020016060815260200160006001600160a01b0316815260200160008152602001606081526020016000151581525090565b8280548282559060005260206000209081019282156127ef579160200282015b828111156127ef57825182546001600160a01b0319166001600160a01b039091161782556020909201916001909101906127ba565b506127fb929150612851565b5090565b828054828255906000526020600020908101928215612845579160200282015b8281111561284557825182906128359082613040565b509160200191906001019061281f565b506127fb929150612866565b5b808211156127fb5760008155600101612852565b808211156127fb57600061287a8282612718565b50600101612866565b634e487b7160e01b600052604160045260246000fd5b600082601f8301126128aa57600080fd5b813567ffffffffffffffff808211156128c5576128c5612883565b604051601f8301601f19908116603f011681019082821181831017156128ed576128ed612883565b8160405283815286602085880101111561290657600080fd5b836020870160208301376000602085830101528094505050505092915050565b60008060008060008060c0878903121561293f57600080fd5b86359550602087013567ffffffffffffffff8082111561295e57600080fd5b61296a8a838b01612899565b9650604089013591508082111561298057600080fd5b61298c8a838b01612899565b955060608901359150808211156129a257600080fd5b506129af89828a01612899565b9350506080870135915060a087013590509295509295509295565b60005b838110156129e55781810151838201526020016129cd565b50506000910152565b60008151808452612a068160208601602086016129ca565b601f01601f19169290920160200192915050565b600081518084526020808501945080840160005b83811015612a535781516001600160a01b031687529582019590820190600101612a2e565b509495945050505050565b600082825180855260208086019550808260051b84010181860160005b84811015612aa957601f19868403018952612a978383516129ee565b98840198925090830190600101612a7b565b5090979650505050505050565b60006101a0825184526020830151816020860152612ad6828601826129ee565b91505060408301518482036040860152612af082826129ee565b91505060608301518482036060860152612b0a82826129ee565b9150506080830151608085015260a083015160a085015260c0830151612b3460c086018215159052565b5060e0830151612b4f60e08601826001600160a01b03169052565b506101008381015190850152610120808401519085015261014080840151908501526101608084015185830382870152612b898382612a1a565b925050506101808084015185830382870152612ba58382612a5e565b9695505050505050565b6000602080830181845280855180835260408601915060408160051b870101925083870160005b82811015612c0457603f19888603018452612bf2858351612ab6565b94509285019290850190600101612bd6565b5092979650505050505050565b600060208284031215612c2357600080fd5b81356001600160a01b0381168114612c3a57600080fd5b9392505050565b600060208284031215612c5357600080fd5b5035919050565b602081526000612c3a6020830184612ab6565b60008060408385031215612c8057600080fd5b50508035926020909101359150565b600080600060608486031215612ca457600080fd5b83359250602084013567ffffffffffffffff80821115612cc357600080fd5b612ccf87838801612899565b93506040860135915080821115612ce557600080fd5b50612cf286828701612899565b9150509250925092565b805182526000602082015160e06020850152612d1b60e08501826129ee565b905060408301518482036040860152612d3482826129ee565b91505060018060a01b0360608401511660608501526080830151608085015260a083015184820360a0860152612d6a8282612a1a565b91505060c0830151151560c08501528091505092915050565b6000602080830181845280855180835260408601915060408160051b870101925083870160005b82811015612c0457603f19888603018452612dc6858351612cfc565b94509285019290850190600101612daa565b602081526000612c3a6020830184612cfc565b60008060008060808587031215612e0157600080fd5b8435935060208501359250604085013567ffffffffffffffff80821115612e2757600080fd5b612e3388838901612899565b93506060870135915080821115612e4957600080fd5b50612e5687828801612899565b91505092959194509250565b600080600080600060a08688031215612e7a57600080fd5b853567ffffffffffffffff80821115612e9257600080fd5b612e9e89838a01612899565b96506020880135915080821115612eb457600080fd5b612ec089838a01612899565b95506040880135915080821115612ed657600080fd5b50612ee388828901612899565b9598949750949560608101359550608001359392505050565b6020808252600e908201526d141bdb1b081b9bdd08199bdd5b9960921b604082015260600190565b602080825260129082015271556e617574686f72697a6520656e7469747960701b604082015260600190565b60208082526019908201527f496d6167652055524c2063616e6e6f7420626520656d70747900000000000000604082015260600190565b602080825260169082015275506f6c6c2068617320766f74657320616c726561647960501b604082015260600190565b600181811c90821680612fcb57607f821691505b602082108103612feb57634e487b7160e01b600052602260045260246000fd5b50919050565b601f82111561303b57600081815260208120601f850160051c810160208610156130185750805b601f850160051c820191505b8181101561303757828155600101613024565b5050505b505050565b815167ffffffffffffffff81111561305a5761305a612883565b61306e816130688454612fb7565b84612ff1565b602080601f8311600181146130a3576000841561308b5750858301515b600019600386901b1c1916600185901b178555613037565b600085815260208120601f198616915b828110156130d2578886015182559484019460019091019084016130b3565b50858210156130f05787850151600019600388901b60f8161c191681555b5050505050600190811b01905550565b634e487b7160e01b600052601160045260246000fd5b60006001820161312857613128613100565b5060010190565b634e487b7160e01b600052603260045260246000fd5b6000815461315281612fb7565b6001828116801561316a576001811461317f576131ae565b60ff19841687528215158302870194506131ae565b8560005260208060002060005b858110156131a55781548a82015290840190820161318c565b50505082870194505b5050505092915050565b6bffffffffffffffffffffffff198460601b16815260006131e56131df6014840186613145565b84613145565b95945050505050565b6000816131fd576131fd613100565b506000190190565b600082516132178184602087016129ca565b9190910192915050565b6000612c3a8284613145565b81810381811115610ff057610ff0613100565b81810361324b575050565b6132558254612fb7565b67ffffffffffffffff81111561326d5761326d612883565b61327b816130688454612fb7565b6000601f8211600181146132af57600083156132975750848201545b600019600385901b1c1916600184901b178455613314565b600085815260209020601f19841690600086815260209020845b838110156132e957828601548255600195860195909101906020016132c9565b50858310156133075781850154600019600388901b60f8161c191681555b50505060018360011b0184555b5050505050565b634e487b7160e01b600052603160045260246000fd5b6bffffffffffffffffffffffff198460601b1681526000835161335b8160148501602088016129ca565b8351908301906133728160148401602088016129ca565b0160140195945050505050565b60208082526021908201527f53746172742064617465206d7573742062652067726561746572207468616e206040820152600360fc1b606082015260800190565b8082028115828204841417610ff057610ff0613100565b80820180821115610ff057610ff061310056fea26469706673582212202c1a097e3c4166fc50e69423824d01fcb979369bd6fc72e02608d582b0315c3064736f6c63430008110033",
  "linkReferences": {},
  "deployedLinkReferences": {}
}